{
  "_format": "hh-sol-artifact-1",
  "contractName": "Counter",
  "sourceName": "contracts/Counter.sol",
  "abi": [
    {
      "stateMutability": "payable",
      "type": "fallback"
    },
    {
      "inputs": [],
      "name": "count",
      "outputs": [],
      "stateMutability": "nonpayable",
      "type": "function"
    },
    {
      "inputs": [],
      "name": "getCounter",
      "outputs": [
        {
          "internalType": "uint32",
          "name": "",
          "type": "uint32"
        }
      ],
      "stateMutability": "view",
      "type": "function"
    },
    {
      "stateMutability": "payable",
      "type": "receive"
    }
  ],
  "bytecode": "0x608060405234801561001057600080fd5b50610434806100206000396000f3fe60806040526004361061002d5760003560e01c806306661abd146100b45780638ada066e146100cb57610073565b36610073576100716040518060400160405280600e81526020017f2d2d2d2d2d20726563656976653a000000000000000000000000000000000000815250346100f6565b005b6100b26040518060400160405280600f81526020017f2d2d2d2d2d2066616c6c6261636b3a0000000000000000000000000000000000815250346100f6565b005b3480156100c057600080fd5b506100c9610192565b005b3480156100d757600080fd5b506100e06101ec565b6040516100ed91906102f1565b60405180910390f35b61018e828260405160240161010c9291906102c1565b6040516020818303038152906040527fb60e72cc000000000000000000000000000000000000000000000000000000007bffffffffffffffffffffffffffffffffffffffffffffffffffffffff19166020820180517bffffffffffffffffffffffffffffffffffffffffffffffffffffffff83818316178352505050506101f5565b5050565b6000808154809291906101a490610375565b91905055506101ea6040518060400160405280600e81526020017f436f756e746572206973206e6f770000000000000000000000000000000000008152506000546100f6565b565b60008054905090565b61020c8161020461020f610230565b63ffffffff16565b50565b60006a636f6e736f6c652e6c6f679050600080835160208501845afa505050565b61023b819050919050565b7f4e487b7100000000000000000000000000000000000000000000000000000000600052605160045260246000fd5b60006102758261030c565b61027f8185610317565b935061028f818560208601610342565b610298816103ed565b840191505092915050565b6102ac81610328565b82525050565b6102bb81610332565b82525050565b600060408201905081810360008301526102db818561026a565b90506102ea60208301846102a3565b9392505050565b600060208201905061030660008301846102b2565b92915050565b600081519050919050565b600082825260208201905092915050565b6000819050919050565b600063ffffffff82169050919050565b60005b83811015610360578082015181840152602081019050610345565b8381111561036f576000848401525b50505050565b600061038082610328565b91507fffffffffffffffffffffffffffffffffffffffffffffffffffffffffffffffff8214156103b3576103b26103be565b5b600182019050919050565b7f4e487b7100000000000000000000000000000000000000000000000000000000600052601160045260246000fd5b6000601f19601f830116905091905056fea2646970667358221220b13e053ab172e23adcbc3cf0c99e0ea9368da810872d1384b9cf29e84ff0834e64736f6c63430008040033",
  "linkReferences": {},
  "deployedLinkReferences": {}
}