{
  "_format": "hh-sol-artifact-1",
  "contractName": "Counter",
  "sourceName": "contracts/Counter.sol",
  "abi": [
    {
      "inputs": [],
      "name": "count",
      "outputs": [
        {
          "internalType": "uint256",
          "name": "",
          "type": "uint256"
        }
      ],
      "stateMutability": "nonpayable",
      "type": "function"
    }
  ],
  "bytecode": "0x608060405234801561001057600080fd5b5061036c806100206000396000f3fe608060405234801561001057600080fd5b506004361061002b5760003560e01c806306661abd14610030575b600080fd5b61003861004e565b6040516100459190610239565b60405180910390f35b6000806000815480929190610062906102ad565b91905055506100a86040518060400160405280600e81526020017f436f756e746572206973206e6f770000000000000000000000000000000000008152506000546100b0565b600054905090565b61014882826040516024016100c6929190610209565b6040516020818303038152906040527fb60e72cc000000000000000000000000000000000000000000000000000000007bffffffffffffffffffffffffffffffffffffffffffffffffffffffff19166020820180517bffffffffffffffffffffffffffffffffffffffffffffffffffffffff838183161783525050505061014c565b5050565b6101638161015b610166610187565b63ffffffff16565b50565b60006a636f6e736f6c652e6c6f679050600080835160208501845afa505050565b610192819050919050565b7f4e487b7100000000000000000000000000000000000000000000000000000000600052605160045260246000fd5b60006101cc82610254565b6101d6818561025f565b93506101e681856020860161027a565b6101ef81610325565b840191505092915050565b61020381610270565b82525050565b6000604082019050818103600083015261022381856101c1565b905061023260208301846101fa565b9392505050565b600060208201905061024e60008301846101fa565b92915050565b600081519050919050565b600082825260208201905092915050565b6000819050919050565b60005b8381101561029857808201518184015260208101905061027d565b838111156102a7576000848401525b50505050565b60006102b882610270565b91507fffffffffffffffffffffffffffffffffffffffffffffffffffffffffffffffff8214156102eb576102ea6102f6565b5b600182019050919050565b7f4e487b7100000000000000000000000000000000000000000000000000000000600052601160045260246000fd5b6000601f19601f830116905091905056fea2646970667358221220bd24f9f10ba4f478170d693a14c0b3e2d6b533ffd33f3b11d62c5c8647700e3064736f6c63430008040033",
  "linkReferences": {},
  "deployedLinkReferences": {}
}